S02B00004D61747465724C696768744F7665725468726561645F6475616C5F696E7374616E6365732E73333744
S3150800600008120020914C0408C1320B08A97B080825
S3150800601045870B08C1320B08C1320B08C1320B0881
S31508006020C1320B08C1320B08C1320B08911E0F088A
S31508006030C1320B0878D51008211E0F084F710F08BA
S31508006040F1500408C1320B08C1320B08C1320B08E3
S31508006050C1320B08C1320B08C1320B08C1320B081A
S31508006060C1320B08C1320B08C1320B08A1B80008AF
S31508006070C1320B08C1320B08C1320B08C1320B08FA
S31508006080C1320B08C1320B08C1320B08C1320B08EA
S31508006090C1320B08215C0408C1320B08C1320B0857
S315080060A0C1320B08BD58040895580408C1320B08BC
S315080060B0C1320B0835BE0708E1C8070867FB0E089A
S315080060C063FB0E0871C007087DFB0E086BFB0E0804
S315080060D0B1C807086FFB0E0821C907088DC907084C
S315080060E0C1320B08C1320B08C1320B08C1320B088A
S315080060F09D830B08C1320B08C1320B08C1320B084D
S31508006100C1320B08C1320B08C1320B08C1320B0869
S31508006110C1320B08C1320B08C1320B08C1320B0859
S31508006120C1320B08C1320B08C1320B08C1320B0849
S31508006130C1320B08C1320B08C1320B08C1320B0839
S31508006140C1320B0869A00408C1320B089D6E0F08FE
S31508006150C9A20708C1320B0849FB0E084FFB0E08F7
S31508006160C1320B08C1320B08C1320B08C1320B0809
S31508006170194A5AB3194BDB6913F0040F29D110B425
S315080061800AE003EA00048C4210D0013AB2B1134B7C
S31508006190DB6913F0040F14D110F0010FF1D1104C84
S315080061A01C40002CEDD06FF001000CE00C4A1A40A0
S315080061B00AB9002007E06FF0010004E06FF0020062
S315080061C001E04FF0FF305DF8044B70476FF00200B6
S315080061D070474FF0FF3070478096980000000350D4
S315080061E0020001000D4BDB6913F4803F12D170B534
S315080061F00A4B03F580560124F46003F500552C6418
S315080062004FF480721A6100212046FFF7B1FF34640B
S31508006210EC6070BD6FF00100704700BF00000350CE
S3150800622010B5124B4FF480329A6603F51C33DC69BD
S31508006230144041F67132DA6303F580520121D160C8
S31508006240586102221A6100212120FFF791FF40B10F
S31508006250074B0122DA601CB1A3F500530022DA636A
S3150800626010BD00212120FFF783FFF1E700900050C1
S315080062700020035038B51A4B5861DB6913F0040F38
S315080062802AD10C4654F8041B154B9961151F06E0D4
S31508006290214651F8042B124B9A61043D0C465DB118
S315080062A008210846FFF764FF03460028F0D00C4A89
S315080062B004211161184638BD094B04221A610021D0
S315080062C02120FFF755FF03460028F3D1002121209E
S315080062D0FFF74EFF0346EDE74FF0FF33EAE700BF4F
S315080062E0000003502DE9F0410F46164605461A4BA5
S315080062F04FF480329A6603F51C33DA6902F4803863
S3150800630041F67132DA6303F580530122DA6000231D
S3150800631002E025442744361B8EB105F5005424F4C3
S31508006320FF5424F01F04641BB44228BF3446224697
S3150800633039462846FFF79EFF03460028E9D0074A54
S315080063400121D160B8F1000F03D0A2F50052002157
S31508006350D1631846BDE8F081009000500020035034
S31508006360000000000000000000000000000000001F
S31508006370013800D0FCE77047F0B591B006460C46E8
S3150800638010468B680B2B00F2A680DFE803F006A404
S3150800639026A436A44862A47484940023049305931F
S315080063A004A97AF09CFE054688B100202F4605B957
S315080063B058B900238522214630467AF003FD3B462C
S315080063C0514A02211D20A4F0BDFE11B0F0BD04AA59
S315080063D02146304616F0C2FFE8E700238DF8103054
S315080063E004A97AF083FE054608B10020DEE704AA70
S315080063F02146304616F022FFD8E70023049305937A
S315080064008DF8183004A97AF078FE054608B1002000
S31508006410CCE704AA2146304617F0A0F8C6E70023C1
S31508006420049305938DF8183009930A939FED347BEE
S315080064308DED0C7BADF8383004A97AF065FE05467B
S3150800644008B10020B2E704AA2146304616F008FD36
S31508006450ACE70023049305938DF8183004A97AF065
S315080064605AFE054608B10020A0E704AA2146304690
S3150800647016F020FC9AE700230493059304A97AF002
S3150800648051FE054608B1002090E704AA2146304689
S3150800649016F090FB8AE700238DF8103004A97AF0ED
S315080064A048FE054608B1002080E704AA2146304682
S315080064B016F004FB7AE700230493059304A97AF0FF
S315080064C03FFE054608B1002070E704AA214630467B
S315080064D016F0F0F96AE70023812230467AF072FC5A
S315080064E0A3686268110C92B2029201919AB2009264
S315080064F01B0C064A01211D20A4F024FE65E700BFF7
S3150800650000000000000000002C790F08F8780F083A
S3150800651008B59FED077B80ED007B00228260C26094
S3150800652001744274114604F039FA08BDAFF30080CD
S3150800653000000000000000000023037043702023C1
S3150800654083700123C37000F1080300F1280203E0F9
S315080065509FED097BA3EC027B9342F9D100F1280356
S31508006560403004E04FF0FF321A605A600833834225
S31508006570F8D17047AFF3008000000000000000006B
S315080065809FED037B80ED007B00220272704700BFFF
S315080065900000000000000000012800D0704708B580
S315080065A04FF6FF73994200D008BD0F480F4B0360A2
S315080065B00F4B03600023436083600322C2600361BC
S315080065C043619FED077B80ED067B80F8203080EDE8
S315080065D00A7B084A0849E9F02AFBE5E7AFF3008099
S315080065E00000000000000000083D00200CB40F0861
S315080065F070B40F087CA30220D5FE00080000000036
S31508006600016002719DED007B80ED027B0022027421
S315080066109FED0D7B80ED067B80F8202080ED0A7BC0
S3150800662080ED0C7B8263C263012180F8401080F8FC
S31508006630482080F8492080ED147B8265C265026691
S3150800664080F86420704700BF0000000000000000CA
S3150800665000220260012101729FED077B80ED047B19
S315080066600276C2610284426280ED0A7B80F830209D
S31508006670704700BFAFF30080000000000000000074
S3150800668000F130030022002A03DA00F1400300215A
S3150800669014E000215970D97059609FED337B83ED62
S315080066A0027B013A1033EEE700225A70DA705A601C
S315080066B09FED2D7B83ED027B013910330029F3DA38
S315080066C000F150030022002A03DA00F190030021AA
S315080066D014E000219970997199609FED237B83EDF1
S315080066E0047B013A1833EEE700229A709A719A6091
S315080066F09FED1D7B83ED047B013918330029F3DAFE
S3150800670000F1A8030022002A03DA00F1D8030021C9
S3150800671014E000219970997199609FED137B83EDC0
S31508006720047B013A1833EEE700229A709A719A6050
S315080067309FED0D7B83ED047B013918330029F3DACD
S3150800674000F1F8030022002A00DA70470021997048
S31508006750997199609FED047B83ED047B013A1833A8
S31508006760F1E700BFAFF30080000000000000000062
S3150800677082B000228DF80120BDF800100185418500
S31508006780C2629FED097B80ED0C7B019201218DF899
S31508006790061001998163C163026480ED127B02B021
S315080067A0704700BFAFF30080000000000000000043
S315080067B02DE9F04104460E4617463F4B03603F4B12
S315080067C043603F4B03602C33436000F10808002503
S315080067D08560C560056145618561C56180F82050A1
S315080067E0056345639FED327B80ED0E7B80F8405054
S315080067F0344B00F1480C0FCB8CE80F00012384F8CA
S31508006800583041F2A453A4F85A30E56584ED187B54
S31508006810E56625672C4BA36684F8745004F17C035F
S31508006820C4F88030E367C4F8845004F190001FF080
S315080068305FFE84F8F85084F8F950244904F1FA0008
S3150800684086F058FF84F8FC5084F8FD5084F8FE5012
S3150800685084F8FF5084F8005104F58273C4F80831AF
S31508006860C4F80431C4F80C513146404683F021FE81
S31508006870304683F0BDFDA0B99FB10A9B8BB1276353
S3150800688006AB03CBA063E1631B7884F840300A9B10
S31508006890C4F88830012384F8F830231DC4F89C30E6
S315080068A002E0002384F8F8302046BDE8F08100BFF6
S315080068B00000000000000000B0C00F08D4C00F0898
S315080068C00CC10F08D4FB012098C91008748C0F0856
S315080068D02DE9F0472DED028BCCB005460E461F4636
S315080068E000200021CDE92A01CDE92C0100248DF8EC
S315080068F0B8402F94CDE930019D4B32939D4B32938E
S315080069004FF6FF73ADF810318DF812418DF813412B
S31508006910289429949046002A62D02C4605F53472AC
S31508006920944210D094F8813073B123686168013BB2
S3150800693041F1FF316FF0010098426FF010038B416F
S3150800694002D39034ECE70024002C47D0BDF85C3124
S31508006950ADF810318DF8B8609FED838B864B269382
S31508006960864B269300222792814B1493814B1493CE
S315080069700B920C920D924FF4C8710BA885F06AF928
S315080069800B9B002B4DD04FF4C8710CA885F062F90B
S315080069900C9B002B6AD04FF4C8710DA885F05AF9E4
S315080069A00D9B002B64D00B9A0E924FF4C8710F9171
S315080069B0002A5FD00C9A10924FF4C8711191002AE0
S315080069C05AD012934FF4C87313930EAA3146284629
S315080069D09CF039FF002851D0044623E00B243BE005
S315080069E0314628469CF0C0FE8146C0B105F5347490
S315080069F0204681F081FCB9F88230ADF810318DF867
S31508006A00B86099ED028B0DF1200A4946504691F07F
S31508006A10ECFE28AB9AE8030083E803009EE7AC2463
S31508006A201AE00B240D9818B12FF0A0FB00230D9344
S31508006A300C9818B12FF09AFB00230C930B9818B1F9
S31508006A402FF094FB00230B934A4B1493484B149353
S31508006A504A4B2693484B2693464B3293444B3293E4
S31508006A6020464CB0BDEC028BBDE8F0870B24D9E775
S31508006A700B24D7E7EAF08CFDEAF08AFD10AA314626
S31508006A8028469CF0C1FE08B10446CBE712AA314657
S31508006A9028469CF095FE08B10446C3E70EA946A809
S31508006AA08FF04AFA10A948A88FF046FA12A94AA800
S31508006AB08FF042FA32AB079314AB06932CAB0593CF
S31508006AC030AB04932AAB039326AB02938DED008B70
S31508006AD04AAA48A946A825F0E1F908B10446A1E75B
S31508006AE00D9818B12FF042FB00230D930C9818B19E
S31508006AF02FF03CFB00230C930B9818B12FF036FBB4
S31508006B0000230B93E7B13B685B693846984714A99D
S31508006B1081F0B3FB08B9C52496E72F979DF858313D
S31508006B208DF812319DF86031B3FA83F35B098DF85D
S31508006B3013312AA920469DF036F968B3044683E73F
S31508006B40D5F8640330B303689B689847C0B1D5F895
S31508006B50640303685B6914AA314698470028E1D0A4
S31508006B60044671E7AFF30080000000000000000053
S31508006B70DC9D0F0870991008481C1008404610083C
S31508006B80D5F864030368DB68314698470028C9D1FD
S31508006B90102459E7032457E728A920469CF07AFDD4
S31508006BA0B8F1000F23D094F881301A4A0221112037
S31508006BB0A4F0C8FA226963692068616802900191A5
S31508006BC00092154A02211120A4F0BCFA279905F56E
S31508006BD05D7028F079FE0346A8B9B8F1000F04D015
S31508006BE095F88233013385F8823300242CE794F82C
S31508006BF081302168626801910092084A02211120B9
S31508006C00A4F0A0FAE2E7064A01211120A4F09AFAB4
S31508006C10E3E700BF1C4510083C45100880451008EE
S31508006C20B8451008000000002DE9F0438BB0054672
S31508006C300C460DF11F030193152300934FF4807240
S31508006C4000230846A2F07CFB10B10BB0BDE8F08328
S31508006C5095F892300093012200232046A2F0F2FA1A
S31508006C600028F2D195F8933000930222002320469B
S31508006C70A2F0E8FA0028E8D10DF10A0301931623D9
S31508006C800093032200232046A2F05AFB0028DCD1F9
S31508006C9005F1980605F594774FF000092EE04FF0B8
S31508006CA000099FED397B8DED007B042200232046E9
S31508006CB0A2F09AFA0028C8D1CDF800900522002340
S31508006CC02046A2F0BFFA0028BFD103AB08931023D1
S31508006CD009930AAB13E903008DE803000622002393
S31508006CE02046A2F012FC0028AFD19DF90B102046D1
S31508006CF0A2F05FFB0028A8D13036C146BE422AD092
S31508006D00002303930493059306930DF10B03019354
S31508006D10152300934FF4807200232046A2F010FB3F
S31508006D20002892D109F101085FFA88F895F893309E
S31508006D304B45B4D996ED007BB6F808900DF10C0CCE
S31508006D40D6F80A00D6F80E10D6F81220D6F816305D
S31508006D50ACE80F00A7E79DF90A102046A2F029FB28
S31508006D6000287FF472AFB5F88A3000930722002313
S31508006D702046A2F067FA00287FF467AF9DF91F1036
S31508006D802046A2F016FB60E70000000000000000A5
S31508006D904FF0FF310160002242609FED077B80EDD6
S31508006DA0047B8261C26102624262826280F82C10B0
S31508006DB0C18580F830207047000000000000000000
S31508006DC000B583B09DF8101049B109219FED067BE7
S31508006DD08DED007BA2F053F903B05DF804FB0821A2
S31508006DE0F4E700BFAFF300800000000000000000D9
S31508006DF000B583B09FED047B8DED007B1421A2F0D6
S31508006E003EF903B05DF804FB000000000000000036
S31508006E1010B58CB00F9C14B900200CB010BD8DF8BD
S31508006E2018009FED0B7B8DED087B00200A900E98CD
S31508006E3005900493039202910CAB13E903008DE8C5
S31508006E40030006AB0FCBA2F08EFCE6E7AFF300809B
S31508006E50000000000000000010B58AB000238DF87D
S31508006E6010309FED137B8DED067B089304AAA3F0E3
S31508006E7023FC10B92F200AB010BD2BF057FE0E497F
S31508006E80A3F0BAFB32F082FC01460C4C2046A3F074
S31508006E906CF863680BB10A4A5A600AAB13E90F002B
S31508006EA08DE80F0004AB0CCB0448A3F028F8E2E702
S31508006EB00000000000000000686C100848FD012072
S31508006EC0C8AC00200000000010B58AB000238DF879
S31508006ED010309FED137B8DED067B089304AAA3F073
S31508006EE0EBFB10B92F200AB010BD2BF01FFE0E4980
S31508006EF0A3F082FB32F04AFC01460C4C2046A3F074
S31508006F0034F863680BB10A4A5A600AAB13E90F00F2
S31508006F108DE80F0004AB0CCB0448A2F0D4FFE2E7DF
S31508006F200000000000000000846C100848FD0120E5
S31508006F30C8AC00200000000010B58AB000238DF808
S31508006F4010309FED137B8DED067B089304AAA3F002
S31508006F50B3FB10B92F200AB010BD2BF0E7FD0E4980
S31508006F60A3F04AFB32F012FC01460C4C2046A2F074
S31508006F70FCFF63680BB10A4A5A600AAB13E90F00B3
S31508006F808DE80F0004AB0CCB0448A2F080FFE2E7C3
S31508006F900000000000000000A06C100848FD012059
S31508006FA0C8AC002000000000002202809FED027B92
S31508006FB080ED027B026170470000000000000000BF
S31508006FC008B5074B18680368D96903A3D3E90023F2
S31508006FD0884708BDAFF3008000E0373B015D03003A
S31508006FE040AB02200000000030B587B00446C378E5
S31508006FF0012B33D18378042B35D190F8B930002B87
S3150800700035D0274B0093002301939FED237B8DED0D
S31508007010027B0A6805920B6005A96846A7F0B2F8D4
S315080070200546059808B13BF0C7F90023059315BB3B
S31508007030D4F8A030019A9A4222D10623238000234D
S3150800704084F8B930019BC4F8A430DDE90223C4E909
S315080070502423134B0093134B009302E0182134F0BA
S315080070601BFE07B030BD182134F016FEF9E71821CB
S3150800707034F012FEF5E71621204634F00DFE03E043
S315080070801721204634F008FE054B0093054B009364
S31508007090E7E700BFAFF30080000000000000000033
S315080070A0C4AA10081CAA100810B58EB00446807829
S315080070B018B1032420460EB010BDE170C4F8AC30F8
S315080070C0137823715388E38092ED027B84ED047B69
S315080070D0D2E90401C4E90601254B0093254B009328
S315080070E000238DF804308DF805308DF80630ADF89C
S315080070F008309FED1D6B8DED046B8DED066B0893C7
S31508007100ADF824300A930B930C9313788DF804305A
S31508007110E388ADF808308DED047BCDE90601936967
S315080071200893938BADF82430136A0A93536A0B932A
S3150800713004F124016846A7F030FB20B104466846EE
S3150800714034F06AFCB6E7E078012800D00420022370
S31508007150A370012384F8B93004F188022146A7F008
S31508007160C6F90024EBE700BF00000000000000009D
S315080071701CAA100838AA10082DE9F047D0B0064610
S315080071800D460E2214AB09E09FED657B83ED007B6F
S315080071904FF0000C83F808C0013A1033002AF3DADE
S315080071A03368DB6912A9304698470446002840F040
S315080071B0A28000220D9202AB0292039204923268D8
S315080071C00093176B05AB0EAA29463046B84788B90F
S315080071D033689B6A0EA93046984768B1A0280BD039
S315080071E02A68019000926B684F4A01210B20A3F090
S315080071F0A9FF01E0A0280BD133685B6B294630460E
S315080072009847824608B1A0280CD14FF0000921E022
S315080072102A68019000926B68444A01210B20A3F06A
S3150800722091FFE9E72B68019000936B68404A0121BA
S315080072300B20A3F087FFE8E750AA02EB041252F8E6
S31508007240F01C52F8EC2C2F686868824208BFB942D5
S315080072501DD00134129BA3423FD9B9F1000FEBD0E0
S31508007260631C12A91B01083301EB030E2201083225
S3150800727001EB020C51F80380DEF8043041F8028075
S31508007280CCF804309EF808308CF80830E1E7621C28
S3150800729050A901EB021212F8F81C2A7A9142D8D1A9
S315080072A0621C9A4214D212A81201083200EB020E8E
S315080072B02101083100EB010C50F80280DEF80420A9
S315080072C040F80180CCF804209EF808208CF80820A5
S315080072D0013B12934FF00109BBE7B9F1000F14D037
S315080072E033689B6912A930469847034638B9002483
S315080072F005A8A8F052FC204650B0BDE8F0870D4A14
S3150800730001210B20A3F01EFFF1E72B68CDF804A09E
S3150800731000936B68084A01210B20A3F013FFE6E7E8
S315080073200000000000000000A4B51008E8B5100829
S3150800733044B6100888B61008B8B610080000000051
S315080073409FED037B80ED007B00220272704700BF31
S3150800735000000000FBFFFFFFA1F10801F0E700BFF6
S315080073609FED037B80ED007B00220272704700BF11
S315080073700000000000000000A1F10801F0E700BFCE
S31508007380002303704370837000F108030E2207E0A0
S315080073909FED0D7B83ED007B00219960013A183340
S315080073A0002AF5DA00F5B873012207E09FED067B9F
S315080073B083ED007B00219960013A1833002AF5DA3B
S315080073C0704700BFAFF30080000000000000000017
S315080073D00A7B9FED037B80ED007B0272704700BF3E
S315080073E000000000000000009FED037B80ED007B9D
S315080073F0704700BFAFF300800000000000000000E7
S3150800740010B588B0002300930193029303930221D9
S315080074108DF8101041F2A451ADF8121005939FEDA6
S31508007420067B8DED067B406801688C686946A04737
S3150800743008B010BDAFF30080000000000000000097
S3150800744070B58AB0844614461D46EE460FC98EE8C6
S315080074500F0001268DF8106041F2A453ADF81230E2
S31508007460002305939FED0C7B8DED067BADF812404E
S315080074702D68099505959EE80F008CE80F008CF895
S315080074801060ACF81240CCF814508CED067B6046C0
S315080074900AB070BDAFF300800000000000000000D5
S315080074A010B5154C20600022626004F11003A36039
S315080074B0124B1A600B221A711A225A714AF0B0F846
S315080074C0204649F085F80E4B186068B108A3D3E941
S315080074D000234FF0FF304FF0FF3149F0C5F8002187
S315080074E0064849F0D3F810BDFEE700BFAFF30080A9
S315080074F00AE020FFE2030000905902208859022082
S31508007500A856022000000000F0B589B00220EBF072
S31508007510ADFD00B9FEE7704B1B68002B5AD0102052
S31508007520EBF0A4FD6C4C23681B798DF81F306B4D6E
S3150800753001231A460DF11F012868E7F03AFD216874
S315080075409DF81F20023A002392B209682868E7F0DE
S3150800755030FD236893F829208DF81020604A05929B
S31508007560002206921B681B7813F0200F33D10024E3
S315080075705A4B1868E7F048FB00284FD19DF81F20A2
S315080075800632069B03EB421306932020EBF06EFDB2
S31508007590002840F08E80504B1A685369002B6DD135
S315080075A01020EBF063FD00285ED0069B03F5FA7306
S315080075B00693494B1A68117E4A4B99704A490978CD
S315080075C0D970917904AA0092224644480068E7F0E7
S315080075D03AF96DE0FEE72868E7F008FB20B9069B54
S315080075E0C03306930124C3E72868E7F0FFFA75F06D
S315080075F005FF02460B4634A1D1E9000176F0A2F850
S3150800760004460D46069875F0F9FE22462B4675F097
S31508007610B9FD76F007FA06900124A9E79DF81F0040
S315080076200630C00075F0FAFE29A3D3E9002375F0E9
S315080076305FFF06460F46294B1868E7F0E5FA75F02E
S31508007640DDFE02460B463046394676F07BF806469E
S315080076500F46069875F0D2FE32463B4675F092FD07
S3150800766076F0E0F9069090E71B4B196804AB2246C2
S3150800767089791A480068E7F0D0F819E011690B44CF
S31508007680A3F1A001029100218DF80C108DF80D10C0
S31508007690164896218180A3F59B730293917904ABD2
S315080076A00193009002AB22460C480068E7F0D6F832
S315080076B030B14FF480510020EBF0BAFFB3F08DFFE4
S315080076C009B0F0BDAFF300800000000060E366413A
S315080076D00000000080842E41385A0220A856022055
S315080076E020A10700DCAB022072AF0220D0AB02203B
S315080076F0F0B585B004460E4615461F461EA3D3E9C7
S31508007700002376F0FFF91E4BA3424FF00003B34166
S315080077101AD303941B4903A8C1F00AFA04464EF685
S31508007720602103A8C1F004FA06464FF47A7103A84B
S31508007730C1F0FEF900903346224613492846C0F0A8
S3150800774099FC7FB905B0F0BD024610492846C0F03D
S3150800775091FC09A3D3E900232046314676F0D2F9F5
S315080077601446D6E7BDF80C2009492846C0F082FC25
S31508007770E8E700BFAFF30080005C260500000000C4
S31508007780FF5B260580EE36008852110880521108E4
S315080077909852110800000000002370B5404C0546B9
S315080077A08AB0E36318B10088236066F069FB3D4838
S315080077B0E7F0B7F93C4E3D4B304633603C4B7360BF
S315080077C061F0C0FE002130466AF06EFD32A3D3E9AF
S315080077D00023A062C4E90623E4F034FED4E90623B4
S315080077E019431043C4E90601CDE900014FF0FF3300
S315080077F04FF0FF32A06AE7F09AFA02224FF0FF3103
S31508007800A06AE7F0AEFA012066F0BAF84FF4007302
S3150800781000222849A06AE7F0E2FBB0F5007F39D1DB
S3150800782000239422079309933C23CDE90332059359
S31508007830962306935023A06A03A908936BF0BEF912
S3150800784035B3287C66F0CEFD0546F0B9A06AE7F0A8
S31508007850E0FD66F075FD66F075F820B14FF48070AE
S31508007860002164F0B5F866F07DF820B14FF40060A9
S31508007870002164F0ADF8E4F0B2FE0120E6F0C8FF9E
S315080078800D4A0E49A06AE4F0D1FD28460AB070BD3B
S31508007890FF20D7E70725F8E70DD50155200000009A
S315080078A0D8860120690345EC74930220B9D70608E7
S315080078B08493022074910220D5C30E0815C40E08BD
S315080078C00348044B834202D0034B03B11847704761
S315080078D08CB002208CB0022000000000064B07493D
S315080078E0C91A891048BF0131491003D0044B0BB19E
S315080078F001481847704700BF8CB002208CB00220A0
S315080079000000000010B5064C237843B9FFF7D8FFEE
S31508007910044B13B10448AFF300800123237010BD54
S31508007920D89E02200000000004B9110808B5054BCE
S315080079301BB105490548AFF30080BDE80840FFF7CD
S31508007940CDBF00BF00000000988C012004B91108C3
S31508007950A3F5803A704700BF174B002B08BF134B9F
S315080079609D46FFF7F5FF00218B460F461348144A3C
S31508007970121AEAF09FF80E4B002B00D098470D4BD1
S31508007980002B00D098470020002104000D000D4868
S31508007990002802D00C48E9F002FE78F09DFF20008E
S315080079A02900E1F044FA77F067FF00BF00000800FD
S315080079B00000000000000000081200200812002045
S315080079C060A102209F150F08000000000023062072
S315080079D073B1704754B224B9013353B15DF8044BFF
S315080079E070470228F8D008680A4908601046F3E785
S315080079F010B4094A52F823100A7A022AEAD9032A45
S31508007A00EAD1441EE4B2012CE6D9086801490860A7
S31508007A101046E1E7B08C0120C8A7022008B500226D
S31508007A2001210248B1F010FE08BD00BFCCA7022014
S31508007A3008B50348ABF05FFD0248ABF05CFD08BD36
S31508007A40B0780F0898780F0808B50348ABF03DFEE4
S31508007A500248ABF03AFE08BDE0780F08C8780F0870
S31508007A6018B1034A1060002070472520704700BFF0
S31508007A70B48C012010B5044C044920683FF0F4FC8E
S31508007A802068FFF7EDFF10BD28A90220FCA70220F9
S31508007A90F0B58DB005460C4610468B68ABB1022B87
S31508007AA038D000238122284679F08CF9A3686268C9
S31508007AB0110C92B2029201919AB200921B0C1C4AC6
S31508007AC001211D20A3F03EFB1CE00023059306932D
S31508007AD00793089309930A930B9305A979F07FF9FD
S31508007AE0064688B10020374606B958B900238522CC
S31508007AF02146284679F066F93B460E4A02211D20A2
S31508007B00A3F020FB0DB0F0BD05AA214628460EF0CD
S31508007B10A3FFE8E705A979F069F9064608B1002048
S31508007B20E1E705AA214628460EF04EFFDBE700BF2F
S31508007B30F8780F082C790F08F0B589B005460C4679
S31508007B4010468B684C2B00F22182DFE813F04D00BB
S31508007B5075008B00A300B900CF00E700FF001701EE
S31508007B602D0145011F021F021F021F021F021F02CD
S31508007B701F021F021F021F021F021F021F021F02EF
S31508007B801F021F021F021F021F021F021F021F02DF
S31508007B901F021F021F021F021F021F021F021F02CF
S31508007BA01F021F021F021F021F021F021F021F02BF
S31508007BB01F021F021F021F021F021F021F021F02AF
S31508007BC01F021F021F021F021F021F021F025B0164
S31508007BD073018901A101B9011F021F02D5011F0204
S31508007BE01F021F02E901030200238DF814308DF8E5
S31508007BF01530ADF816308DF818308DF8193005A9FE
S31508007C0079F0FBF8064688B10020374606B958B918
S31508007C10002385222146284679F0D4F83B46BF4AF8
S31508007C2002211D20A3F08EFA09B0F0BD05AA21464F
S31508007C3028468BF0AFFBE8E700238DF814308DF863
S31508007C4015308DF816308DF8173005A979F0DCF85F
S31508007C50064608B10020D8E705AA214628468BF033
S31508007C60AEFED2E700238DF814308DF815308DF866
S31508007C7016308DF817308DF8183005A979F0CBF83D
S31508007C80064608B10020C0E705AA214628468BF01B
S31508007C9069FCBAE700238DF81430ADF816308DF874
S31508007CA018308DF8193005A979F0BCF8064608B1E0
S31508007CB00020AAE705AA214628468BF059F9A4E729
S31508007CC000238DF814308DF815308DF816308DF8A0
S31508007CD0173005A979F0ADF8064608B1002094E7F3
S31508007CE005AA214628468BF0FCFC8EE700238DF872
S31508007CF014308DF815308DF816308DF817308DF84C
S31508007D00183005A979F09CF8064608B100207CE7EA
S31508007D1005AA214628468BF082FD76E700238DF8D2
S31508007D2014308DF81530ADF816308DF818308DF8FA
S31508007D30193005A979F08BF8064608B1002064E7E2
S31508007D4005AA214628468BF001FA5EE70023ADF81E
S31508007D501430ADF81630ADF818308DF81A308DF8A5
S31508007D601B3005A979F07AF8064608B100204CE7D9
S31508007D7005AA214628468BF0F6FE46E70023ADF80D
S31508007D801430ADF816308DF818308DF8193005A96D
S31508007D9079F06BF8064608B1002036E705AA2146B1
S31508007DA028468BF0A4FF30E70023ADF81430ADF871
S31508007DB01630ADF818308DF81A308DF81B3005A935
S31508007DC079F05AF8064608B100201EE705AA2146AA
S31508007DD028468CF04EF818E70023ADF81430ADF8B5
S31508007DE016308DF818308DF8193005A979F04BF84A
S31508007DF0064608B1002008E705AA214628468CF061
S31508007E00DFF802E70023ADF814308DF81630ADF828
S31508007E1018308DF81A308DF81B3005A979F03AF824
S31508007E20064608B10020F0E605AA214628468BF04A
S31508007E30CBFAEAE600238DF81430ADF816308DF843
S31508007E4018308DF8193005A979F02BF8064608B1CF
S31508007E500020DAE605AA214628468BF0C8FDD4E6B6
S31508007E6000238DF81430ADF81630ADF818308DF8BB
S31508007E701A308DF81B3005A979F01AF8064608B1AC
S31508007E800020C2E605AA214628468BF085FBBCE6FB
S31508007E900023ADF814308DF81630ADF818308DF88B
S31508007EA01A308DF81B3005A979F009F8064608B18D
S31508007EB00020AAE605AA214628468BF061F9A4E621
S31508007EC000238DF814308DF815308DF81630ADF87E
S31508007ED01830ADF81A308DF81C308DF81D3005A90C
S31508007EE078F0F4FF064608B100208EE605AA21467A
S31508007EF028468CF063FB88E600238DF814308DF84D
S31508007F00153005A978F0E9FF064608B100207CE699
S31508007F1005AA214628468AF063FC76E62C790F08DE
S31508007F2000238DF81430ADF81630ADF81830ADF8DA
S31508007F301A308DF81C308DF81D3005A978F0D4FF5D
S31508007F40064608B1002060E605AA214628468CF0B8
S31508007F500AF95AE600238DF81430ADF81630ADF854
S31508007F601830ADF81A30ADF81C308DF81E308DF883
S31508007F701F3005A978F0BFFF064608B1002044E681
S31508007F8005AA214628468CF0CAF93EE60023812236
S31508007F90284678F017FFA3686268110C92B202921D
S31508007FA001919AB200921B0C024A01211D20A3F0EE
S31508007FB0C9F839E6F8780F08F0B58BB006460C46CE
S31508007FC010468B68022B39D0042B4BD09BB100236B
S31508007FD08122304678F0F6FEA3686268110C92B2E8
S31508007FE0029201919AB200921B0C254A01211D208A
S31508007FF0A3F0A8F81AE0ADF8103000220023CDE966
S31508008000062304A978F07EFF054688B100202F468E
S3150800801005B958B9002385222146304678F0D2FEA4
S315080080203B46184A02211D20A3F08CF80BB0F0BD80
S3150800803004AA2146304610F03FFBE8E700230493E4
S315080080400593069307930893099304A978F061FFAB
S31508008050054608B10020DAE704AA2146304610F0A2
S3150800806071FCD4E704A978F05BFF054608B1002047
S31508008070CDE704AA2146304610F0AAFBC7E700BFA1
S31508008080F8780F082C790F08F0B589B005460C4624
S3150800809010468B68ABB1012B37D0002381222846C6
S315080080A078F090FEA3686268110C92B20292019170
S315080080B09AB200921B0C1B4A01211D20A3F042F81C
S315080080C01BE000230493059300220023CDE9062331
S315080080D004A978F02CFF064688B10020374606B971
S315080080E058B9002385222146284678F06BFE3B4680
S315080080F00D4A02211D20A3F025F809B0F0BD04AAF7
S31508008100214628468DF094F9E8E704A978F016FF89
S31508008110064608B10020E1E704AA2146284610F0E1
S3150800812065FEDBE7F8780F082C790F08F0B59DB0E7
S3150800813006460C4615468B68042B57D8DFE803F02D
S315080081400326563748006022002104A8E9F0B2FC4D
S3150800815004A9284678F0F9FE054688B100202F467E
S3150800816005B958B9002385222146304678F02AFEFB
S315080081703B46284A02211D20A2F0E4FF1DB0F0BDAF
S3150800818004AA2146304611F055F8E8E70023ADF871
S31508008190103004A9284678F0DFFE054608B100200D
S315080081A0DDE704AA2146304611F03AF9D7E700235D
S315080081B0ADF8103004A9284678F0D5FE054608B172
S315080081C00020CCE704AA2146304610F0A1FFC6E7F6
S315080081D004A9284678F0CEFE054608B10020BEE779
S315080081E004AA2146304611F089F9B8E7002381220E
S315080081F078F0E8FDA3686268110C92B202920191C8
S315080082009AB200921B0C044A01211D20A2F09AFF83
S31508008210B4E700BF2C790F08F8780F08F0B595B0C9
S3150800822006460C4615468B68052B7BD8DFE803F017
S315080082300326374859670023ADF81030059306938F
S3150800824004A9284678F09DFE054688B100202F46E9
S3150800825005B958B9002385222146304678F0B2FD83
S315080082603B463A4A02211D20A2F06CFF15B0F0BD2C
S3150800827004AA214630468EF068F9E8E70023ADF8EF
S31508008280103004A9284678F083FE054608B1002078
S31508008290DDE704AA214630468EF076F9D7E704A82A
S315080082A078F07DFE04A9284678F086FE054608B1D2
S315080082B00020CCE704AA2146304611F077FBC6E732
S315080082C00023ADF8103004A9284678F07CFE054650
S315080082D008B10020BBE704AA214630468EF0B5F95E
S315080082E0B5E704A9284678F075FE054608B10020CA
S315080082F0ADE704AA2146304611F0B8FAA7E70023ED
S31508008300ADF810300593069304A9284678F069FE5F
S31508008310054608B100209AE704AA214630468EF0A1
S31508008320EAF894E70023812278F04CFDA368626896
S31508008330110C92B2029201919AB200921B0C044A55
S3150800834001211D20A2F0FEFE90E700BF2C790F0840
S31508008350F8780F08F0B587B005460C4610468B68C6
S31508008360ABB1402B33D000238122284678F02AFD72
S31508008370A3686268110C92B2029201919AB20092B5
S315080083801B0C1C4A01211D20A2F0DCFE17E000236D
S31508008390ADF8143005A978F02BFE064688B1002002
S315080083A0374606B958B9002385222146284678F06B
S315080083B009FD3B46104A02211D20A2F0C3FE07B064
S315080083C0F0BD05AA214628468EF01EFAE8E70023E6
S315080083D08DF814308DF8153005A978F010FE06468C
S315080083E008B10020DCE705AA2146284611F0F8FB6B
S315080083F0D6E700BFF8780F082C790F08F0B587B0D4
S3150800840006460C4610468B68072B00F2C280DFE84A
S3150800841003F0042A40586A8096AE00238DF810307F
S315080084208DF814308DF816308DF8173004A978F0C9
S31508008430EDFD054688B100202F4605B958B9002339
S3150800844085222146304678F0BDFC3B465B4A022130
S315080084501D20A2F077FE07B0F0BD04AA21463046DB
S315080084608EF001FBE8E700238DF810308DF8123006
S315080084708DF813308DF8143004A978F0CEFD054632
S3150800848008B10020D8E704AA2146304612F0EAF9D6
S31508008490D2E700238DF810308DF811308DF814309E
S315080084A08DF816308DF8173004A978F0BDFD05460D
S315080084B008B10020C0E704AA2146304612F04EF85B
S315080084C0BAE700238DF810308DF8113004A978F03A
S315080084D0B2FD054608B10020AEE704AA214630469B
S315080084E012F00AFEA8E700238DF810308DF8143034
S315080084F08DF816308DF8173004A978F0A3FD0546D7
S3150800850008B1002098E704AA2146304611F0DAFEA1
S3150800851092E700238DF810308DF812308DF813305D
S315080085208DF8143004A978F094FD054608B10020AA
S3150800853082E704AA2146304612F0DCF97CE70023DC
S315080085408DF810308DF811308DF814308DF81630FE
S315080085508DF8173004A978F083FD054608B1002088
S315080085606AE704AA2146304612F040F864E7002379
S315080085708DF810308DF8113004A978F078FD05468D
S3150800858008B1002058E704AA2146304612F0D8FD63
S3150800859052E700238122304678F014FCA36862680B
S315080085A0110C92B2029201919AB200921B0C044AE3
S315080085B001211D20A2F0C6FD4DE700BF2C790F084A
S315080085C0F8780F0870B58CB005460C468B6833BB37
S315080085D000200021CDE90401ADF818308DF81A30D5
S315080085E08DF81C30ADF8283004A9104678F046FD01
S315080085F0064670B1002036B3002385222146284658
S3150800860078F0E0FB3346114A02211D20A2F09AFDBC
S3150800861017E004AA2146284617F002FCEBE70023D8
S31508008620812278F0CFFBA3686268110C92B202929D
S3150800863001919AB200921B0C054A01211D20A2F055
S3150800864081FD0CB070BD0028FBD1D5E72C790F0849
S31508008650F8780F08F0B587B006460C4610468B68C2
S31508008660402B51D024D8012B3BD0022B07D104A98B
S3150800867078F019FD0546002840D0002007E0002BB9
S3150800868067D104A978F001FD054620B300202F46DE
S3150800869005B958B9002385222146304678F092FB61
S315080086A03B46364A02211D20A2F04CFD07B0F0BD1C
S315080086B0412B3BD0422B4CD100238DF81030ADF81E
S315080086C01230ADF8143004A978F002FD05460028EA
S315080086D039D00020DBE704AA214630468FF0CFFECA
S315080086E0D5E704A978F0D8FC054608B10020CEE7FE
S315080086F004AA214630468FF0CCFEC8E704AA2146D4
S3150800870030468FF0D0FEC2E700238DF810308DF882
S31508008710113004A978F0CEFC054608B10020B6E76A
S3150800872004AA214630468FF0C8FEB0E704A978F0BF
S31508008730C8FC054608B10020A9E704AA2146304628
S315080087408FF0C7FEA3E704AA214630468FF0D4FE71
S315080087509DE7002381222146304678F033FBA36843
S315080087606268110C92B2029201919AB200921B0CA5
S31508008770034A01211D20A2F0E5FC97E72C790F0892
S31508008780F8780F0870B586B005460C468B68D3B9DD
S3150800879005A9104678F0DBFC064670B1002036B312
S315080087A0002385222146284678F00CFB3346114AD9
S315080087B002211D20A2F0C6FC17E005AA214628467C
S315080087C01AF0FAFFEBE70023812278F0FBFAA36898
S315080087D06268110C92B2029201919AB200921B0C35
S315080087E0054A01211D20A2F0ADFC06B070BD002887
S315080087F0FBD1D5E72C790F08F8780F0830B583B088
S315080088000446154643683F2B25D8032B6FD3DA1E3B
S315080088103C2A6CD8DFE802F047416B596B4D6B6B0D
S315080088206B6B6B6B6B6B6B6B6B6B6B6B6B6B6B6B8A
S315080088306B6B6B6B6B6B6B6B6B6B6B6B6B6B6B5392
S315080088406B6B6B6B6B2F6B6B356B656B6B6B6B6BE2
S315080088506B286B5F3B00B3F5407F48D10A4601465B
S315080088602846FFF769F904E00A4621462846FFF735
S315080088700FF903B030BD0A4621462846FFF79CFB90
S31508008880F7E70A4621462846FFF7FEFBF1E70A46C0
S3150800889021462846FFF74AFCEBE70A4621462846C2
S315080088A0FFF7BCFCE5E70A4621462846FFF752FDD6
S315080088B0DFE70A4621462846FFF7A0FDD9E70A461C
S315080088C021462846FFF77EFED3E70A462146284674
S315080088D0FFF7C0FECDE70A4621462846FDF74CFDC0
S315080088E0C7E70A4621462846FFF74CFFC1E79AB272
S315080088F000921B0C054A01211D20A2F023FC00232F
S31508008900C3222146284678F05DFAB2E758790F085F
S3150800891040F25343984235D015D8992820D040F2D2
S315080089200113984207D129293ED81A291DD20129AF
S3150800893022D8012070473C2803D1022930D80120CB
S3150800894070470020704740F20E53984220D0194BCA
S31508008950984203D1122921D0002070470020704781
S31508008960013906291ED8012070471A394FF2091015
S31508008970C84000F001007047032901D00020704765
S3150800898001207047012901D900207047012070474E
S3150800899061B1023901290BD90020704701207047BF
S315080089A0002070470020704700207047012070475C
S315080089B00120704705FCF1FF10B5164C4FF4E47220
S315080089C000212046E9F076F80923236163611249FC
S315080089D0A161124BE3614FF4806222620023A36215
S315080089E06362E362C4F8F0100D49C4F8F410C4F8E1
S315080089F0F820C4F80031C4F8FC30C4F8043106E0A5
S31508008A00C3F10F020749895C024AD15401330F2B7F
S31508008A10F6D910BD1895012074790F081891012010
S31508008A20188D012080790F082DE9F04704468846FD
S31508008A309146274B1B78DBB2532B1BD104EB440220
S31508008A40234B03EBC203D3F80071D3F8FC50AF42B3
S31508008A5013D80026ED1B4D4528BF4D4645BB36B1FC
S31508008A6004EB44041A4B03EBC403C3F80071304605
S31508008A70BDE8F087FFF7A0FFE0E71346144A02EBCC
S31508008A80C30ADAF8F860F61B4E4528BF4E46DAF8F0
S31508008A90F410324639444046E9F0B7F8B044A9EB39
S31508008AA006093744DAF8F830BB42D3D10027D1E7B4
S31508008AB004EB4402064B03EBC203D3F8F4102A4630
S31508008AC039444046E9F0A1F82E442F44C7E700BFD1
S31508008AD018950120F8B50F461646451C05EB4505C1
S31508008AE0164B03EBC50500EB400003EBC003DC6A3D
S31508008AF0012C11D0022C1CD014B100242046F8BD3C
S31508008B0028467EF05CFC8642F8D832463946284626
S31508008B107EF061FC3446F1E728467EF050FC344688
S31508008B20864228BF04462246394628467EF053FC2C
S31508008B30E4E728467EF071FC0446DFE71895012035
S31508008B40F8B504460D4616460A4B1B78DBB2532B7E
S31508008B500DD1EFF311874FF0200181F311883246CA
S31508008B6029462046FFF7B6FF87F31188F8BDFFF7B9
S31508008B7023FFEEE718950120F8B504460F4616467A
S31508008B801D46194B1878C0B2532826D1082C27D869
S31508008B90EFF311834FF0200181F3118894B1124A43
S31508008BA0601C00EB4001C900575000EB400002EB87
S31508008BB0C000466004EB440102EBC10215620021C5
S31508008BC09162516204EB4404074A02EBC402069917
S31508008BD0D16283F311880020F8BDFFF7EDFED5E7D3
S31508008BE04FF0FF30F8E700BF18950120F8B50446A6
S31508008BF00F4616461D46184B1878C0B2532824D17E
S31508008C00082C25D8EFF311804FF0200181F3118845
S31508008C107CB104EB4402104B03EBC203C3F8F070BB
S31508008C20C3F8F460C3F8F8500022C3F80021C3F86B
S31508008C30FC2004EB4404084B03EBC403069AC3F870
S31508008C40042180F311880020F8BDFFF7B5FED7E7A9
S31508008C504FF0FF30F8E700BF1895012038B50446F5
S31508008C600D460E4B1B78DBB2532B11D1082C12D8AC
S31508008C70EFF311824FF0200181F3118804EB4404CD
S31508008C80064B03EBC403DD6282F31188002038BD6E
S31508008C90FFF792FEEAE74FF0FF30F8E71895012054
S31508008CA001282DD002461C4880FB02301044D317F9
S31508008CB0C3EBA003981C202A12D000B500EB420C87
S31508008CC04FEA4C0C0CF1010C03F1010E4FEA4E0E63
S31508008CD09CFBFEFC4FEA4C0C013392000A3209E079
S31508008CE04FF01A0C013392000A320FE0CA54013BC6
S31508008CF0A2EB0C02002BF9DC06230B705DF804FBD3
S31508008D0000207047CA54013BA2EB0C02002BF9DC89
S31508008D1006230B70704700BF93244992B1F5004FA4
S31508008D203CD208B5012808D00238062828D8DFE83A
S31508008D3000F014271D2727241F0001EB8101490095
S31508008D40023100F1553080FB0130A0EBE1700028BC
S31508008D501DDBB0F5004F24DA08BD01EB810301EBFA
S31508008D604301013101EBD1714810F0E7C800EEE785
S31508008D7001EB410001EB8000E9E709B91820E8E7B3
S31508008D80094B0A4A40F25F31094876F04FFD094B14
S31508008D90064A40F26231064876F048FD4FF0FF3049
S31508008DA070474FF0FF30D7E794790F084C810F08CA
S31508008DB09C790F08D8790F0808B54B1E272B0FD8B2
S31508008DC00731174B83FB0123C917C1EBE3010138B0
S31508008DD007281CD8DFE800F00B0F1B131B1B2217F4
S31508008DE0104B114A40F2F231104876F01FFD104B35
S31508008DF053F8210008BD0F4B53F82100FAE70E4B34
S31508008E0053F82100F6E70D4B53F82100F2E70C4B17
S31508008E10054A40F2FA31054876F008FD0020E9E7F0
S31508008E2079787878E4790F0804810F089C790F0817
S31508008E30F8800F08EC800F08E0800F08D4800F0830
S31508008E4094790F082DE9F04789469246804608B37B
S31508008E50002425464C453DD2220108EB04135E68E2
S31508008E60DF68B6F5004F20D2B7F5004F24D2514639
S31508008E7018F80200FFF7A0FF102824D80123834022
S31508008E80B34234DD043038440544B5F5004F31DAD1
S31508008E900134DFE711B90C460025DBE7174B184A02
S31508008EA040F2DB31174876F0C1FC174B144A4FF4F1
S31508008EB07871144876F0BAFC144B114A40F2E13145
S31508008EC0104876F0B3FC124B0D4A40F2E3310D48D8
S31508008ED076F0ACFCB5F5004F02D22846BDE8F0871F
S31508008EE00C4B074A40F2EA31064876F09FFC4FF0F1
S31508008EF0FF35F2E74FF0FF35EFE700BF2C7A0F0892
S31508008F0018810F089C790F08487A0F08707A0F089D
S31508008F109C7A0F08B87A0F0838B5102905D830FAA0
S31508008F2001F402D101F1FF3E18E00E4B0E4ABA21B8
S31508008F300E4876F07BFC1968CD10545D20FA0EFCBD
S31508008F400CF0010CC94301F007010CFA01F12143A9
S31508008F5051550EF1FF3E196801311960BEF1000F37
S31508008F60E9DA38BDDC7A0F08AC800F089C790F085F
S31508008F7008B5431E272B22D8024600F1080300FB3A
S31508008F8003F304331801012A13DD144B83FB021380
S31508008F901344D117C1EBA301023101EB810303EBA3
S31508008FA083030A3B01FB03F3373BC01A062A00DD9D
S31508008FB02438A0F1D003B3F5E64F07D808BD084B0F
S31508008FC0084A4FF4AA71084876F030FC074B054A60
S31508008FD04FF4AE71044876F029FC00BF93244992F9
S31508008FE0207B0F0848800F089C790F08607B0F08C4
S31508008FF038B5032914D805460C46FFF7B9FF0028EB
S3150800900015DB04EB840304EBC3040A4B23445B57C8
S31508009010094A2244525702FB03F3C3EBE00038BD6A
S31508009020064B074A40F24911064876F0FFFB07301F
S31508009030E7E700BF08820F0864810F08847B0F08E2
S31508009040C0800F089C790F0808B50378A3F1150CA2
S31508009050BCF19C0F11D800290FDB8B420DDD002ACD
S315080090600BDB934209DD02FB031100EBE10001F083
S31508009070070140787EF029FA08BD034B034A40F2FF
S315080090800231034876F0D2FB947B0F082C800F0838
S315080090909C790F0808B590F800C0ACF1150EBEF122
S315080090A09C0F15D8002913DB8C4511DD002A0FDB30
S315080090B094450DDD02FB0C1101F0070CC9100131B6
S315080090C06BB1435C012202FA0CF21343435408BD08
S315080090D0074B084A40F20B31074876F0A7FB425C7B
S315080090E0012303FA0CF3DB435BB213404354EEE768
S315080090F0947B0F0820800F089C790F0808B54368F1
S3150800910001EB4101994207DB002B35DD82689A4263
S3150800911009D00022104631E01B4B1C4A4FF433712C
S315080091201B4876F083FBC16803EB4302914202D0E9
S315080091300022104622E002699A4202D00022104616
S315080091401CE042699A4202D00022104616E00168E5
S315080091504FEA830CB1EB830F04DB82699A4209DA82
S31508009160002200E000228069844509DC994209DB77
S31508009170012003E00122F6E700221046104408BD4C
S315080091800020FBE70020F9E7E47B0F08E87F0F08DB
S315080091909C790F082DE9F047441E1D2C0DD807466B
S315080091A00D46024600212846E8F084FC4FF00109E6
S315080091B005F804904FF0000A0DE0124B124A40F2EF
S315080091C06711124876F032FB022148467EF062F9B2
S315080091D081460AF1010ABA4512DA0024BC42F3DADA
S315080091E005EB04084946285D7EF054F928550134F4
S315080091F0BC42F3DA98F80130584088F80000EDE7E9
S31508009200BDE8F087F47B0F087C800F089C790F086F
S315080092102DE9F04F83B001900C9D03F1FF3ABAF1A6
S315080092201D0F0AD88B4690461F461A460021284627
S31508009230E8F040FC4FF0000913E0144B144A4FF4D1
S31508009240C171144876F0F2FA314618F804007EF037
S3150800925021F92B5D43402B550134BC42F4DB09F15F
S315080092600109D9450EDA019B13F80960294611F858
S31508009270013B5E4052462846E8F002FC002405F809
S315080092800A40EAE703B0BDE8F08F00BFF47B0F0899
S3150800929060800F089C790F082DE9F04F8FB0059074
S315080092A0032A2CD80F4691461D46002927DD282972
S315080092B025DC02EB820302EBC3032F4A1A445456F9
S315080092C02E4A134413F901800846FFF751FE002879
S315080092D01CDBC61049463846FFF78AFE049096FB03
S315080092E0F4FA04FB1A66A31B0393AAEB080A06A959
S315080092F04046FFF74FFF059F4FF0000B22E0204B3B
S31508009300204A4FF49471204876F090FA0730E0E747
S31508009310F95CA95401332244B34204DA5345F7D120
S315080093200399521AF4E7049B0BEB0302002304E0AB
S3150800933019F80310A954013322444345F8DB37448E
S315080093400BF1010BA34514DA039B9B45B4BF5646A4
S315080093500AF10106059B049A03EB0209CDF8009071
S31508009360434606AA31463846FFF752FF5A460023B7
S31508009370D2E70FB0BDE8F08F64810F0808820F08A6
S31508009380307C0F0898800F089C790F0808B528B11B
S315080093900078A0F115039C2B07D808BD064B074A91
S315080093A040F2EF21064876F041FA064B034A40F2AE
S315080093B0F121034876F03AFA987C0F08A87F0F083F
S315080093C09C790F08A87C0F082DE9F04F85B003900B
S315080093D0019117461046FFF7D9FF064600F1FF3AF6
S315080093E0D3464FF00008CDF808A036E04FF0050B3D
S315080093F039E0D1464A4629463846FFF725FE18B9C8
S31508009400019BB8EBC30F0DDB0134012C1DDCABEB64
S3150800941004050BF1010313F0020FEAD1029BA3EB3B
S315080094200A09E7E74FEAE8036FEA080101F00701CE
S31508009430039AD05C7EF049F803464A4629463846E0
S31508009440FFF728FE08F10108DEE70AF1010AB2452E
S3150800945001DA0024D9E7ABF1020BBBF1000F05DDF9
S31508009460BBF1060FC2D04FF0000AF0E7019BB8EB3C
S31508009470C30F02D105B0BDE8F08F034B034A40F293
S315080094805721034876F0D2F9047D0F0838800F0873
S315080094909C790F082DE9F04F83B007468B46FFF7F6
S315080094A075FF824607240CE000232246062138462B
S315080094B0FFF7F0FD0023062221463846FFF7EAFDAE
S315080094C00234AAF10703A342EEDC6FF003062DE08F
S315080094D0022B10D0042B0ED00134042C25DC84EA90
S315080094E0E472A2EBE47286EAE673A3EBE6739342B0
S315080094F0EEDC1346ECE7E51C06F1030900234A46B1
S31508009500294638467DF0E5FFAAF1040800234A46B5
S3150800951008EB040138467DF0DCFF002308EB060261
S31508009520294638467DF0D5FFD6E70136042E02DCFB
S315080095306FF00304D1E769465846FFF7B1FB814649
S315080095404FF0000838E01EB109F1FF33B34205D1E8
S3150800955001364E452EDAB8F1000FF4D009F1FF3383
S31508009560434524D1002EF3D04FF0FF351AE0B5B1AC
S3150800957000233846FFF78EFD0134012C11DC08F173
S3150800958008036B4413F8081C214406F108036B44CE
S3150800959013F8082C2A44002CE9D00023E9E7012314
S315080095A0E7E70135012DD3DC4FF0FF34E5E74FF04F
S315080095B0FF35F7E708F10108C84501DA0026C8E7CC
S315080095C0BBF1060F13DC03B0BDE8F08FE31241F6DA
S315080095D0257101FB03F383EA440401320B2AF5DD06
S315080095E044EA0B345FEAA44904D1C84620E05C4645
S315080095F00022F3E7114B124A4FF4F971114876F03D
S3150800960015F9AAF10B05354404F0010B5B464246F1
S3150800961029463846FFF73EFD5B462A464146384608
S31508009620FFF738FD64100136022EEADD08F101085D
S31508009630B8F1050FC7DC4E46F6E700BF187D0F08E0
S3150800964004800F089C790F082DE9F047D3B2072B41
S3150800965008D88246884617460846FFF797FE814689
S315080096600026ACE0594B5A4A40F26121594876F037
S31508009670DDF8351985F0010505F001053246214664
S315080096804046FFF7E1FC2B1A18BF01233246214654
S315080096904046FFF7FFFC01344C4580F28F80324686
S315080096A021465046FFF7D0FC0028F4D1072F7ED874
S315080096B001A353F827F000BF73960008D99600084F
S315080096C0E3960008FB9600081597000831970008EE
S315080096D05B9700088597000886F0010505F00105E7
S315080096E0CCE73D4D85FB0435A5EBE47505EB450553
S315080096F0AC4214BF00250125C0E73519364B83FB5C
S315080097000523A3EBE57303EB43039D4214BF002532
S315080097100125B3E7304D85FB0435A5EBE47506EB6B
S31508009720D67305EB630585F0010505F00105A5E788
S3150800973004FB06F2002A02F00103B8BF5B42194691
S31508009740254B83FB0203A3EBE27303EB4303D31A14
S31508009750D9420CBF0125002590E704FB06F2002A32
S3150800976002F00105B8BF6D421B4B83FB0213A3EB46
S31508009770E27303EB4303D31A1D4485F0010505F094
S3150800978001057BE7351905F0010548BF6D4204FB65
S3150800979006F2114B83FB0213A3EBE27303EB4303BD
S315080097A0D31A1D4485F0010505F0010566E70B4B44
S315080097B0074A40F27121074876F038F801364E45D7
S315080097C001DA002468E7BDE8F08700BF287D0F08A6
S315080097D0DC7F0F089C790F085655555594790F0864
S315080097E02DE9F041CBB2072B08D815464A4B53F85A
S315080097F0203041EAC3010C4600220EE0474B484A96
S3150800980040F20621474876F011F8631240F23750C5
S3150800981000FB03F383EA44040132092AF5DD44EA2E
S31508009820812484F4A84686F01206E41301D127465B
S3150800983011E03D4B3A4A40F20D213A4875F0F6FFE1
S31508009840394630467DF041FE03463A460821284609
S31508009850FFF720FC0137052FF2DD062130467DF0A3
S3150800986034FE0346072208212846FFF713FC072182
S3150800987030467DF02AFE0346082211462846FFF7A1
S3150800988009FC082130467DF020FE03460822072100
S315080098902846FFF7FFFB09270BE0394630467DF0DF
S315080098A014FE03460822C7F10E012846FFF7F2FB0D
S315080098B001370E2FF1DD2846FFF768FD80460DE0DB
S315080098C008F1FF373F1B214630467DF0FEFD034673
S315080098D0082239462846FFF7DDFB0134072CEFDD61
S315080098E008240DE0A8F10F072744214630467DF0ED
S315080098F0ECFD03463A4608212846FFF7CBFB013420
S315080099000E2CEFDD0123A8F1080208212846FFF7EF
S31508009910C1FBBDE8F08100BFBC7F0F08287D0F089A
S31508009920CC7F0F089C790F084C7D0F082DE9F04F66
S3150800993087B08B4615461C46DDF840A09DF9443095
S3150800994001939DF84860149F8046A0B1002C1ADD4B
S31508009950544518DCBAF1280F15DC032D05D8019BF0
S31508009960B3F1FF3F01DB072B16DD9A4B9A4AD0214C
S315080099709A4875F05BFF0029E8D0994B964ACE21A4
S31508009980964875F053FF974B934ACF21934875F045
S315080099904DFF544514DA013429462046FFF728FBC3
S315080099A04FEAC009224659464046FFF74BFAB0F13E
S315080099B0FF3FEED08145ECDB02904FF0010906E04F
S315080099C00020387007B0BDE8F08F09F10109B9F138
S315080099D0030F0DDC002EF8D05FFA89FA51462046AF
S315080099E0FFF706FB029BB3EBC00FEEDC5546ECE730
S315080099F0A300113303FB03F307330BD4DB105A1C04
S31508009A0000213846E8F056F8002305939946039551
S31508009A10A24614E00733F1E7AA68E310D05CE343F3
S31508009A2003F00703184105AB3A4601210840FFF742
S31508009A3073FA0134EB68A342EEDC09F10109D94552
S31508009A4018D24FEA091608EB091505AB3A46042160
S31508009A5018F80600FFF760FA6C68514618F8060011
S31508009A60FFF7AAF9014605AB3A462046FFF754FA2E
S31508009A700024DFE7039D5446DDF81480029B9845D1
S31508009A802ED129465046FFF7B3FA4FEAC009B8EB7C
S31508009A90C00F2BDCA9EB0801042900DD042105AB66
S31508009AA03A460020FFF738FA059B5A4203F00703A7
S31508009AB002F0070258BF5342C3F10803584203F0A5
S31508009AC0070100F0070005AB3A4658BF414200209F
S31508009AD0FFF722FA059B13F007080DD1EC2619E0CB
S31508009AE0414B3D4AF2213D4875F0A0FE3F4B3A4AAC
S31508009AF0F6213A4875F09AFE3D4B374AFC2137481D
S31508009B0075F094FE05AB3A4608213046FFF704FA8D
S31508009B1086F0FD06059B4B45F4DB139B2A4621463A
S31508009B203846FFF7B9FB394620467DF0FCFC20464F
S31508009B30FFF71EFA011E21DB3A46C9101398FFF7F4
S31508009B4043FC21463846FFF7A5FC139920467DF0CD
S31508009B50EAFC019BB3F1FF3F30D09DF80430072B98
S31508009B6031D8019C224639461398FFF76DFD3A46CF
S31508009B7021462846FFF734FE012023E70731DBE7B5
S31508009B80224639464846FFF75FFD08F10108B8F155
S31508009B90070FE2DC4FFA88F4224639464846FFF7B3
S31508009BA053FD3A4621462846FFF71AFE38467DF009
S31508009BB05EFD8642E4DD06460194E1E76FF0004665
S31508009BC0DDF84C90E3E70B4B034A4FF48C710348DE
S31508009BD075F02CFEC47D0F0828810F089C790F08A4
S31508009BE02C7A0F085C7D0F08087E0F08207E0F0868
S31508009BF03C7E0F08287D0F0808B558B10346007843
S31508009C00002914DB884214DD002A14DB904208DCA4
S31508009C1000200DE00A4B0B4A40F2F9210A4875F07C
S31508009C2005FE1846FFF710FA38B1012000E00020BB
S31508009C3008BD0020FCE70020FAE70020F8E700BF8F
S31508009C40987C0F08947F0F089C790F0810B5044676
S31508009C5038B1217861B10848E7F034FF50B10134D2
S31508009C60F7E7064B064A40F22931064875F0DEFD4D
S31508009C70012010BD0020FCE75C7E0F084C7E0F0813
S31508009C80787F0F089C790F0808B5024638B1137813
S31508009C9063B1303BDBB2092B0AD80132F7E7054B33
S31508009CA0054A4FF44D71054875F0C0FD012008BD01
S31508009CB00020FCE74C7E0F08647F0F089C790F088C
S31508009CC008B5FFF72BF8B0F1FF3F0CD0B0F5004F01
S31508009CD002D20730C00808BD044B054A40F242319B
S31508009CE0044875F0A3FD4FF0FF30F4E78C7E0F08AB
S31508009CF0447F0F089C790F082DE9F04184B0C1B163
S31508009D00064615460C460846E7F08CFF80460120B5
S31508009D108DF800004146FFF701F80746B0F1FF3F0E
S31508009D200ED0CDF80480002811DC002003900146EF
S31508009D301CE0294B294A40F27A31294875F076FD0C
S31508009D40284B264A40F27F31254875F06FFDC21D23
S31508009D50D20800212846E7F0ADFEE6E7224B1F4A67
S31508009D6040F289311E4875F061FD01342378ABB1A4
S31508009D70A3F13002D2B2092AF0D800EB800003EB37
S31508009D804003A3F1300001310329EED103AB2A4683
S31508009D900A21FFF7C1F800200146E6E700290CDC96
S31508009DA0039BBB4211D1029504AB13E90F0086E869
S31508009DB00F00304604B0BDE8F08101EB410103AB6A
S31508009DC02A460131FFF7A8F8EAE7084B034A4FF499
S31508009DD06571034875F02AFDAC7E0F082C7F0F08C5
S31508009DE09C790F08BC7E0F08CC7E0F08E47E0F080E
S31508009DF02DE9F04385B0B9B1804617460E460846A8
S31508009E00E7F010FF044602208DF800002146FEF711
S31508009E1085FF8146B0F1FF3F0DD00194002811DC83
S31508009E200024039425461CE0294B2A4A4FF46771FF
S31508009E30294875F0FBFC294B264A40F2A1312648F1
S31508009E4075F0F4FCC21DD20800213846E7F032FE50
S31508009E50E6E7234B1F4A40F2AB311F4875F0E6FC94
S31508009E6001363178B9B11F48E7F02CFE0028F0D04A
S31508009E7004EB4404C4EB04141A4A831A1C4401353F
S31508009E80022DEDD103AB3A460B212046FFF744F8E5
S31508009E9000242546E4E7002D0CDC039B4B4510D136
S31508009EA0029704AB13E90F0088E80F00404605B097
S31508009EB0BDE8F08303AB3A4606212046FFF72CF8A7
S31508009EC0EBE7094B034A40F2B631034875F0AEFC9E
S31508009ED04C7E0F08107F0F089C790F08BC7E0F0870
S31508009EE0007F0F085C7E0F08E47E0F08014B0360B5
S31508009EF0704700BFDC850F08014B0360704700BF41
S31508009F0004860F08014B0360704700BF74860F086C
S31508009F10044A026030324260034A4260034A0260E1
S31508009F20704700BF24860F0804860F08DC850F08D3
S31508009F30A0F10400ECE700BF08B5034A02211D2082
S31508009F40A1F000F908BD00BFAC820F0808B5034AA6
S31508009F5002211D20A1F0F6F808BD00BFBC820F083B
S31508009F6008B5044A02211D20A1F0ECF8024BFF2295
S31508009F701A7008BDCC820F086CAF022008B50A48D3
S31508009F800368DB690121984740B908482DF0B0F805
S31508009F902BF036FB03681B6F984708BD5EF06AFB1B
S31508009FA00121DEF099FFF0E7A80B0220A0B00020FF
S31508009FB010B52CF071FB2CF0A7FB0A4C204631F0AB
S31508009FC019F8204631F00EF800224FF46171064860
S31508009FD095F0FEF900B910BD044A01212120A1F02F
S31508009FE0B1F8F8E7F8CD002090A20020E8820F0823
S31508009FF010B50446034B03600821AEF004FB204667
S3150800A00010BD00BF74860F0810B50446064B0360E2
S3150800A01030334360054B4360054B03601021AEF0B7
S3150800A020F2FA204610BD00BF24860F0804860F08E2
S3150800A030DC850F08A0F10400E6E700BF10B504466A
S3150800A040034B03600821AEF0DEFA204610BD00BFC0
S3150800A05004860F0810B50446034B03600421AEF0CE
S3150800A060D2FA204610BD00BFDC850F08012800D0B3
S3150800A07070474FF6FF739942FAD170B584B01F4DF9
S3150800A0800024C5F8C84085F8CC4085F8CD4085F849
S3150800A090CE4085F8CF402022214605F1D000E7F0D2
S3150800A0A009FD85F8F04085F8F14085F8F240144E30
S3150800A0B003940294134B019302230093124B134A01
S3150800A0C0012130460FF0C6FD114D2A46114930468A
S3150800A0D0E5F0ADFD1048046044608460C4600F4B31
S3150800A0E003600F4B43600F4B0360303343602A46CF
S3150800A0F00D49E5F09CFD04B070BD00BF1097012026
S3150800A100F49601202DA100084D9F0008399F0008EC
S3150800A1107CA3022027680908E0960120DC850F0841
S3150800A12004860F0824860F08119F0008F0B587B02B
S3150800A1300446027D364B1A70837D83B9344B1978F1
S3150800A140FE2941D011D80B2958D80B2956D8DFE853
S3150800A15001F01629165555555555555555292D4A63
S3150800A16003212120A0F0EEFFE8E7FF2946D1A1F060
S3150800A1705CFE03685B6A22462749984710E0A1F00F
S3150800A18054FE054603685E690523ADF8043001A947
S3150800A19068467DF00AFC23461F4A00992846B047C0
S3150800A1A007B0F0BDA1F041FE054603685E690A23C3
S3150800A1B0ADF80C3003A902A87DF0F7FB2346164A32
S3150800A1C002992846B047EBE7A1F02FFE03685B6AC1
S3150800A1D0114E224631469847A1F027FE05460368E8
S3150800A1E05F690123ADF8143005A904A87DF0DDFBED
S3150800A1F02346324604992846B847D1E7044BFF223E
S3150800A2001A70064A02211D20A0F09CFFC8E700BF6D
S3150800A2106CAF022018830F08619F00084C830F0853
S3150800A22010B50C46124A10210A20EAF0B9F8114B6B
S3150800A230186048B1104A0F492046E9F079FC0F4BDF
S3150800A240186058B1002010BD0D4A01212120A0F048
S3150800A25079FF40F201707DF0B4FCEBE7094A012171
S3150800A2602120A0F06FFF40F202707DF0AAFCE9E71A
S3150800A270A8860F08ACA9012084860F08B0A901207A
S3150800A28064830F0888830F0830B583B0404BDB7DA5
S3150800A2906BB9404B1B78FF2B54D00B2B0CD8DFE83F
S3150800A2A003F00E141B0B0B0B0B0B0B0B0B23FA22D9
S3150800A2B0114639487DF0B0FB012003B030BD32228B
S3150800A2C0114635487DF0A8FBF6E74FF47A72114639
S3150800A2D031487DF0A1FBEFE74FF42F724FF49671EA
S3150800A2E02D487DF099FBE7E72C4B1B7823B33224E6
S3150800A2F02BB340F2B6352A4B19680B681B696846BA
S3150800A300984700980199274A1368526813F57A7393
S3150800A31042F10002984271EB0202CDD3214B18603C
S3150800A32059601E4A137883F0010313702A462146A2
S3150800A33019487DF071FBBFE74FF42F74D8E74FF447
S3150800A3409675D8E7184B1B788BB1184B1B7873B1E9
S3150800A350174B1B7823B101210F4800F01FFBABE711
S3150800A360322240F2B6310C487DF056FBA4E7114B79
S3150800A3701B782BB16422114607487DF04DFB9BE7FD
S3150800A38040F2B632322104487DF046FB94E700BF1E
S3150800A390F49601206CAF022010120020D99E0220EC
S3150800A3A040AB022008120020DB9E0220DE9E02201F
S3150800A3B0DD9E0220DC9E022010B5084B1870084C62
S3150800A3C02046A3F08BFA074B18702046A3F0E6FA4E
S3150800A3D0054B1870FFF758FF10BD00BFDB9E022023
S3150800A3E0F8CD0020DE9E0220DD9E022010B515481D
S3150800A3F0A2F0C9F958B9144B1B78FBB1134800F001
S3150800A400E1FA134B186808B100F0DCFA10BD114CDC
S3150800A4102046A3F063FA104B18702046A3F0BEFA44
S3150800A4200E4B18700E482FF08DF9003818BF012012
S3150800A4300C4B18700348A2F0B0F9DCE7FFF724FFCD
S3150800A440DCE700BFA0B00020DA9E02201012002030
S3150800A450F0960120F8CD0020DE9E0220DD9E022027
S3150800A4602C090220DC9E022008B5094B1868E9F081
S3150800A47033FDB0F1FF3F00D008BD064A0121212077
S3150800A480A0F060FE40F206707DF09BFBF4E700BF8B
S3150800A490B8A90120A4830F0808B58102094BA3FBBC
S3150800A4A001318909084B1868E9F0ECFC00B908BDC8
S3150800A4B0064A01212120A0F045FE40F205707DF0F4
S3150800A4C080FBF4E7D34D6210B8A90120BC830F08BE
S3150800A4D010B540F6B8330B4A02212120A0F032FE0F
S3150800A4E040F6B830FFF7D8FF074B01221A70074C21
S3150800A4F00021204600F052FA4FF4FA7120467DF00A
S3150800A50091FA10BDD8830F08DA9E02201012002097
S3150800A51008B5FFF7A9FF064B1B7803B908BD044B1E
S3150800A52000221A70034A02212120A0F00BFEF5E74B
S3150800A530DA9E022018840F0838B50379012B05D056
S3150800A540174B1B783BB1FFF7E3FF38BD40F6B83031
S3150800A550FFF7A2FFF9E7FFF787FF124803689B6832
S3150800A5609847114B1B78ABB9104D2846A2F004F951
S3150800A57000224FF461710E4894F02AFF04462846DB
S3150800A580A2F00BF9002CE0D00A4A01212120A0F004
S3150800A590D9FDDAE7084A02212120A0F0D3FDD4E745
S3150800A5A0DA9E0220E4730220DB9E0220A0B000207F
S3150800A5B090A20020E8820F083C840F0808B50A21FB
S3150800A5C0074B1868E9F05EFC00B908BD054A012189
S3150800A5D02120A0F0B7FD40F205707DF0F2FAF4E70D
S3150800A5E0B4A901207C840F08004870471097012001
S3150800A5F070B58AB005460DF1040C184C0FCCACE8C2
S3150800A6000F000FCCACE80F002368CCF800302E46BC
S3150800A610E5B9134D2846A3F061F904462846A3F088
S3150800A620BDF904B900208DF805000E4894F023FE04
S3150800A6308DF826000C4B93F83A398DF804304EB94C
S3150800A64001A90A487DF0B5FB0AB070BD0848A2F01A
S3150800A65093F8DEE70648A2F0A0F8F1E7C0860F08EF
S3150800A660F8CD002090A200207096002010970120B7
S3150800A670A0B0002008B501460A4B186858B1002357
S3150800A6801822E9F0E7FE00B908BD074A0121212092
S3150800A690A0F058FDF8E7054A01212120A0F052FD57
S3150800A6A0F2E700BFACA9012094840F08C4840F0800
S3150800A6B000B585B00123ADF800300190034B039334
S3150800A6C06846FFF7D7FF05B05DF804FB05A7000845
S3150800A6D008B5CB6813B10846984708BD024A022157
S3150800A6E02120A0F02FFDF8E7E8840F0808B500221E
S3150800A6F0024903482CF034FD08BD00BF8B790808D1
S3150800A700A0B0002008B50388012B04D1044B1B78A0
S3150800A71013B9FFF7DDFE08BDFFF7E8FFFBE700BF4B
S3150800A720DA9E022008B50022024903482CF018FDDB
S3150800A73008BD00BF97790808A0B0002010B5A4B0DE
S3150800A740044603AB0193812302935DF093FF01A9AD
S3150800A7505EF058FC90B934B901AB93E803001BF0DE
S3150800A76031FC24B010BD084C029A019920467DF0B0
S3150800A77037FB012120467DF07DFBEDE7034A0121E9
S3150800A7802120A0F0DFFCECE71097012018850F08C0
S3150800A79008B50020FFF7D2FF0120FFF729FF02487E
S3150800A7A07DF057FB08BD00BF1097012010B5044681
S3150800A7B00023024619462748E9F004FB264B186091
S3150800A7C0002832D00023224601212448E9F0FAFA6B
S3150800A7D0234B1860002832D0224B234A022121201D
S3150800A7E0A0F0B0FC0123214A02212120A0F0AAFCF6
S3150800A7F02AF006FF03685B6F98470120FFF79EFF64
S3150800A80000F0B6F800211A48FBF782FE0022194923
S3150800A8101948A1F073FF1948A3F0AFF8184B187040
S3150800A8201849194899F04DF810BD184A01212120F8
S3150800A830A0F088FC40F204707DF0C3F9C2E7144A20
S3150800A84001212120A0F07EFC40F204707DF0B9F9C8
S3150800A850C2E700BFB1A60008B8A90120D779080841
S3150800A860B4A901208CCF0F0868850F088C850F08BE
S3150800A87010120020D5A80008A0B00020F8CD0020AE
S3150800A880DB9E0220E4960120289C002030850F08D4
S3150800A8904C850F08014B1878704700BFDB9E0220D5
S3150800A8A010B582B00446FFF7F5FF08B902B010BD2F
S3150800A8B0002323730DF1070105487DF076FA9DF80C
S3150800A8C00730022BF2D1002101487DF0ABFAEDE703
S3150800A8D01097012030B585B00446038848F2020275
S3150800A8E0934207D948F20402934206D1027A1D4BD5
S3150800A8F01A7002E0B3F5004F01D805B030BDFFF776
S3150800A90073FE05460DF107017DF04FFA9DF80730F5
S3150800A910012B1DD094F90830012B03D094F9093086
S3150800A920012BEAD1104A02212120A0F00BFCA1F04C
S3150800A9307CFA044603685D690323039303A902A806
S3150800A9407DF05CF80023094A02992046A847D4E717
S3150800A9500020FFF74DFE9DF8071028467DF062FAA5
S3150800A960D8E700BFDB9E0220AC850F08A37908084C
S3150800A97008B5024803681B6A984708BDA80B022059
S3150800A98010B5044604480368DB6A217C9847637C53
S3150800A99083F00103637410BDA80B022038B5044682
S3150800A9A00D460023C360836000220023C0E900230C
S3150800A9B0034803685B6A227C9847657438BD00BF04
S3150800A9C0A80B022083680BB370B582B00446C3682F
S3150800A9D093B10F4B19680B681B6968469847009E28
S3150800A9E0019D637C53B1A168236862685B1842F1D4
S3150800A9F00002B342AA4103D302B070BDE168F3E78F
S3150800AA002046FFF7BDFF26606560F5E7704700BF83
S3150800AA1040AB0220024A0260024A0260704700BF49
S3150800AA20D4990F0830890F08024A0260024A026068
S3150800AA30704700BFC8CB0F08CC880F0808B5024876
S3150800AA40A2F044FF08BD00BFF8CD002008B50248B3
S3150800AA50A2F040FF08BD00BFF8CD0020012800D0B5
S3150800AA6070474FF6FF739942FAD110B50B480C4B55
S3150800AA7003600C4B0360002343608360C360037468
S3150800AA80436103764376084C22460849E5F0CFF839
S3150800AA90224607490748E5F0CAF810BDC8A90120AB
S3150800AAA048880F08609C10087CA30220859D03082F
S3150800AAB015AA000870A9022008B5024830F050F817
S3150800AAC008BD00BFF8CD002008B5064B0360243347
S3150800AAD04360836823B9044B4360044B036008BD95
S3150800AAE0E6F056FDEC880F08AC880F088C880F082E
S3150800AAF0A0F10400E8E700BF10B50446054B036063
S3150800AB004433436093F0BBFE2046FFF7DDFF204643
S3150800AB1010BD00BF700E1008A0F10400ECE700BFDE
S3150800AB2010B50446044B0360044B03600821ADF0DE
S3150800AB306AFD204610BD00BFD4990F0830890F085A
S3150800AB4008B50C4A02211F20A0F0FCFA0A4830F08A
S3150800AB5049FA00B108BD01210848FFF7ADFF0028F2
S3150800AB60F8D1074A02211F20A0F0ECFA0248A2F009
S3150800AB70ABFEEFE7E4860F08F8CD00202C0902208B
S3150800AB8004870F0810B50120EBF094FE11480368FE
S3150800AB901B689847104A00211048E8F0C9FF104C76
S3150800ABA02060104A02211F20A0F0CCFA236873B156
S3150800ABB0084803685B69984728F0A4FE0A4A0221F8
S3150800ABC01F20A0F0BFFAAC207CF0FBFF10BDE6F01A
S3150800ABD0DFFC00BFA80B022060890F0899AE0008A9
S3150800ABE0C4A9012020870F0834870F0810B504462A
S3150800ABF0044B0360044B03600421ADF004FD2046BA
S3150800AC0010BD00BFC8CB0F08CC880F0838B504465E
S3150800AC10C3689BB1636BB3B1A36BEBB1E36B23B3AF
S3150800AC20244B2362244DE16828469AF00CFA236ADD
S3150800AC302B61284699F059FBD0B138BD1F4B204AE5
S3150800AC405A60C360E6E7E1681E487CF01FFF0028EB
S3150800AC50F3D11C4B6363DFE7E1681B487CF053FFC5
S3150800AC600028EAD1184BA363D8E7184BE363D7E764
S3150800AC70114BE361E368D3B1154A536000200028FD
S3150800AC80DBD1134B236103F063FA6062114BA362B5
S3150800AC90114A02212120A0F055FAE1680F4809F06F
S3150800ACA017FC0028C9D10D4B63610020C5E72F208A
S3150800ACB0E5E700BF24AA022034EE012044AA0220B8
S3150800ACC0D8FF012030AA0220A0F00120D872002067
S3150800ACD02CEE012028AA02204C870F08F0ED01204F
S3150800ACE030B585B00446544D2A4602211F20A0F0EF
S3150800ACF029FA2346514A02211F20A0F023FA2A46A0
S3150800AD0002211F20A0F01EFA4D4A02211F20A0F0A2
S3150800AD1019FA4C487CF091FE08B105B030BD2146C1
S3150800AD2049482EF007FD5DF0A5FC0446DEF0BCF8A8
S3150800AD300028F2D12546002C4CD0201D2AF0C2FB53
S3150800AD400CB104F1080528462AF044FB2046DEF03B
S3150800AD50C0F8002840D03D4B3D4A02211F20A0F0F4
S3150800AD60F1F9FFF7EDFE0028D7D13A48A1F004FD26
S3150800AD70394BD3E8AF3F13F0010F2FD0374BD3E849
S3150800AD80AF3F13F0010F37D0354C364BE363364DE2
S3150800AD9028462FF005F865632046FFF737FF00239E
S3150800ADA0019302930393314B0193314B029331483C
S3150800ADB0A2F053FD039001ABE3622F4B23602146BB
S3150800ADC02E481BF0FBFE04462248A1F0E6FC34B3ED
S3150800ADD02046A2E72046B1E7294BBDE71E48AEF05C
S3150800ADE0C2FB0028CAD0274A27492848E4F01FFF93
S3150800ADF01948AEF0BDFBC1E71848AEF0B4FB002811
S3150800AE00C2D0184C2149204619F094FE1D4A204903
S3150800AE102046E4F00CFF1148AEF0AAFBB4E71D4843
S3150800AE202BF0F2FF0B482CF0BDF900287FF475AF24
S3150800AE3000F088F8002070E790870F08C4870F088D
S3150800AE40D0870F0898B000202C0902207C870F08AD
S3150800AE50E0870F08A0B00020C0A90120BCA90120E6
S3150800AE6030A9022028120020C8A901203DAA0008FE
S3150800AE704DAA0008F8CD0020E09601207076002043
S3150800AE8084870F087CA3022029AA00082CA902207F
S3150800AE90F9AA0008F4870F0810B51A48FFF720FF2B
S3150800AEA038BB194C194BD3F884142046A0F09CFFE4
S3150800AEB020462AF0F7FA1648A1F05EFC5DF0DAFBA8
S3150800AEC000B10C3020F0AAFE1148A1F066FC114A28
S3150800AED002211F20A0F036F90F485CF039FE58B958
S3150800AEE00E4B1868E8F090FE48B90C4B00221A6021
S3150800AEF010BD7CF066FED4E77CF063FEF0E7E6F072
S3150800AF0047FB00BF1C880F0870A9022070A6002006
S3150800AF10A0B000202C880F08E4730220C4A90120E1
S3150800AF2008B5024827F0E6FD08BD00BF44FC01202D
S3150800AF3008B50121024B1868E8F08EFE08BD00BF6F
S3150800AF40E4A9012008B50A4827F01CFD60B901F0FC
S3150800AF50A9FE01F0FBFE074A00210748E8F0E8FDD4
S3150800AF60064B186010B108BDE6F012FBE6F010FBC0
S3150800AF7044FC01208C890F0821AF0008E4A90120B0
S3150800AF80024A0260024A0260704700BF2C7A100823
S3150800AF900C8B0F08044A026020324260034A426062
S3150800AFA0034A0260704700BF3C8C0F08288B0F08C5
S3150800AFB0E08A0F08A0F10400ECE700BF024A02602D
S3150800AFC0024A0260704700BFE8FD0F08F48B0F08BD
S3150800AFD0024A0260024A0260704700BF6CFD0F0811
S3150800AFE0488B0F0810B50446064B036020334360B0
S3150800AFF0054B4360054B03601021ADF004FB20466A
S3150800B00010BD00BF3C8C0F08288B0F08E08A0F087C
S3150800B010A0F10400E6E700BF10B50446054B03603F
S3150800B020406B08B137F0C8F900236363024B23600D
S3150800B030204610BD1CF30F08B88A0F0810B5044641
S3150800B040154B03606433436000F50E7037F0FEFF5E
S3150800B05004F5D07204F5067300E0183B9A42FCD159
S3150800B0600E4B63642033A3640D4BA3640D4B6364DA
S3150800B07004F11C00636A13B100226262984704F166
S3150800B0800800236913B1002222619847064B6360C2
S3150800B090064B2360204610BDD0F90F083C8C0F08DC
S3150800B0A0288B0F08E08A0F08F48A0F08988B0F0878
S3150800B0B0A0F10400C2E700BF10B50446064A012104
S3150800B0C00C20A0F03FF80023A360E06810B10368E5
S3150800B0D09B68984710BD00BFB0890F08A0F104000F
S3150800B0E0EAE700BF30B583B0C068D8B10D4614464C
S3150800B0F01A68019200221A6001AA214612F050FE2F
S3150800B100019808B137F058F9002301930C4B1B68D6
S3150800B1100093A3886BB12B8943F040032B81002051
S3150800B12003B030BD074A01210C20A0F00BF800201F
S3150800B130F6E7E388002BEED12378402BEBD1EEE738
S3150800B1407C8C0F08C4890F08A0F10400CAE700BF69
S3150800B150F0B587B006460C46224A032115209FF013
S3150800B160F1FFB568002D2DD00023ADF810301E4B29
S3150800B1701B68039323893BB31C4A1268039253B393
S3150800B1800123ADF81030277B606837F0F9F863685B
S3150800B190059304AB009305AB3A46A168284628F008
S3150800B1A0F3FF0446059808B137F006F9002305931E
S3150800B1B02CB1B06818B1A0F044F90023B36020465A
S3150800B1C007B0F0BD0320FBE76289022AD4D1227BAF
S3150800B1D0142AD1D1D7E76389002BD1D1237B402B01
S3150800B1E0CED1D0E7F8890F08788C0F087C8C0F0829
S3150800B1F008B50D4BD3E8AF3F13F0010F01D00B484C
S3150800B20008BD0948AEF0AFF90028F8D00748084B42
S3150800B2100360084B0360084A0849E4F008FD024841
S3150800B220AEF0A6F9EBE700BFA0B20120A4B2012058
S3150800B2300C8B0F082C7A10087CA3022081AF00081B
S3150800B24010B50446044B0360044B03600421ADF0BB
S3150800B250DAF9204610BD00BF2C7A10080C8B0F08AF
S3150800B26086B02F4B03602F4B43602F4B036064332C
S3150800B270436000F10803C3608360002303614061F3
S3150800B2802A4A826103AA04920392059300F11C02DA
S3150800B2900262C26143628062254AC262CDF804D066
S3150800B2A0CDF800D0029303634363836380F83C3090
S3150800B2B00364204A4264204A8264204A4264203257
S3150800B2C0826480F87430C0F88030C0F88430C0F8E2
S3150800B2D08830C0F88C30C0F89031C0F8943180F8C6
S3150800B2E09831C0F89C3100F5D072042303E00021A0
S3150800B2F002F8181B013B002BF9DA0023C0F81832B4
S3150800B3000522C0F81C2280F82032C0F83C32C0F86A
S3150800B31040320B4AC0F8382280F8443206B07047EB
S3150800B320988B0F08F48A0F08D0F90F0871F10108F5
S3150800B33019E40108E08A0F08288B0F083C8C0F08CF
S3150800B34098C9100838B504460B4B036000254560BC
S3150800B35005720A4B40F8103B30F090FBC4F8D05009
S3150800B360C4F8D450064904F1D8007CF01EFBC4F892
S3150800B370DC50204638BD00BFB88A0F081CF30F08FA
S3150800B380748C0F08012800D0704738B54FF6FF7344
S3150800B390994200D038BD0F4D2846FFF761FF0E4C85
S3150800B3A022460E492846E4F042FC22460C490D483E
S3150800B3B0E4F03DFC22460C490C48E4F038FC0C4D00
S3150800B3C02846FFF7BFFF22460A492846E4F02FFC25
S3150800B3D0E0E700BF581600207CA302203DB0000815
S3150800B3E0BDAF000898A90220D1AF000878A90220AD
S3150800B3F07815002019B00008F0B583B0164E30460F
S3150800B40012F090FF154901F54053D3F88434144AD5
S3150800B4105360144D144F00972B46304613F03CF9F1
S3150800B420124B2B612EF07EFF044602463146284613
S3150800B43014F0DCF8394620462EF004FE18B90A4BFB
S3150800B4405C6003B0F0BD0A482BF0DEFC094B0A4AE3
S3150800B4506D210A4874F0EAF9581600207076002023
S3150800B46098A9022078A902207815002080510100A9
S3150800B4700C8A0F08288A0F08408A0F08608A0F0866
S3150800B48010B50446044B0360044B03600821ADF075
S3150800B490BAF8204610BD00BFE8FD0F08F48B0F0868
S3150800B4A010B50446044B0360044B03602021ADF03D
S3150800B4B0AAF8204610BD00BF6CFD0F08488B0F0880
S3150800B4C02DE9F04F87B00446394BD3F828B0D3F8A6
S3150800B4D02CA0D3F834909D6BD0F800804768866816
S3150800B4E0C3680193026902924169039180690490D5
